{
  "address": "0xc919F86ed528A3d0b59Aa25191430aDECebC5AC2",
  "abi": [
    {
      "inputs": [
        {
          "internalType": "string",
          "name": "uri",
          "type": "string"
        }
      ],
      "stateMutability": "nonpayable",
      "type": "constructor"
    },
    {
      "anonymous": false,
      "inputs": [
        {
          "indexed": true,
          "internalType": "address",
          "name": "owner",
          "type": "address"
        },
        {
          "indexed": true,
          "internalType": "address",
          "name": "approved",
          "type": "address"
        },
        {
          "indexed": true,
          "internalType": "uint256",
          "name": "tokenId",
          "type": "uint256"
        }
      ],
      "name": "Approval",
      "type": "event"
    },
    {
      "anonymous": false,
      "inputs": [
        {
          "indexed": true,
          "internalType": "address",
          "name": "owner",
          "type": "address"
        },
        {
          "indexed": true,
          "internalType": "address",
          "name": "operator",
          "type": "address"
        },
        {
          "indexed": false,
          "internalType": "bool",
          "name": "approved",
          "type": "bool"
        }
      ],
      "name": "ApprovalForAll",
      "type": "event"
    },
    {
      "anonymous": false,
      "inputs": [
        {
          "indexed": true,
          "internalType": "address",
          "name": "previousOwner",
          "type": "address"
        },
        {
          "indexed": true,
          "internalType": "address",
          "name": "newOwner",
          "type": "address"
        }
      ],
      "name": "OwnershipTransferred",
      "type": "event"
    },
    {
      "anonymous": false,
      "inputs": [
        {
          "indexed": true,
          "internalType": "address",
          "name": "from",
          "type": "address"
        },
        {
          "indexed": true,
          "internalType": "address",
          "name": "to",
          "type": "address"
        },
        {
          "indexed": true,
          "internalType": "uint256",
          "name": "tokenId",
          "type": "uint256"
        }
      ],
      "name": "Transfer",
      "type": "event"
    },
    {
      "inputs": [
        {
          "internalType": "address",
          "name": "to",
          "type": "address"
        },
        {
          "internalType": "uint256",
          "name": "tokenId",
          "type": "uint256"
        }
      ],
      "name": "approve",
      "outputs": [],
      "stateMutability": "nonpayable",
      "type": "function"
    },
    {
      "inputs": [
        {
          "internalType": "address",
          "name": "owner",
          "type": "address"
        }
      ],
      "name": "balanceOf",
      "outputs": [
        {
          "internalType": "uint256",
          "name": "",
          "type": "uint256"
        }
      ],
      "stateMutability": "view",
      "type": "function"
    },
    {
      "inputs": [
        {
          "internalType": "uint256",
          "name": "index",
          "type": "uint256"
        },
        {
          "internalType": "string",
          "name": "uri",
          "type": "string"
        }
      ],
      "name": "changeImage",
      "outputs": [],
      "stateMutability": "nonpayable",
      "type": "function"
    },
    {
      "inputs": [
        {
          "internalType": "string",
          "name": "a",
          "type": "string"
        },
        {
          "internalType": "string",
          "name": "b",
          "type": "string"
        }
      ],
      "name": "compareStrings",
      "outputs": [
        {
          "internalType": "bool",
          "name": "",
          "type": "bool"
        }
      ],
      "stateMutability": "pure",
      "type": "function"
    },
    {
      "inputs": [
        {
          "internalType": "uint256",
          "name": "tokenId",
          "type": "uint256"
        }
      ],
      "name": "getApproved",
      "outputs": [
        {
          "internalType": "address",
          "name": "",
          "type": "address"
        }
      ],
      "stateMutability": "view",
      "type": "function"
    },
    {
      "inputs": [],
      "name": "getChangableIds",
      "outputs": [
        {
          "internalType": "uint256[]",
          "name": "",
          "type": "uint256[]"
        }
      ],
      "stateMutability": "view",
      "type": "function"
    },
    {
      "inputs": [
        {
          "internalType": "uint256",
          "name": "amount",
          "type": "uint256"
        }
      ],
      "name": "getPrice",
      "outputs": [
        {
          "internalType": "uint256",
          "name": "",
          "type": "uint256"
        }
      ],
      "stateMutability": "view",
      "type": "function"
    },
    {
      "inputs": [
        {
          "internalType": "address",
          "name": "owner",
          "type": "address"
        },
        {
          "internalType": "address",
          "name": "operator",
          "type": "address"
        }
      ],
      "name": "isApprovedForAll",
      "outputs": [
        {
          "internalType": "bool",
          "name": "",
          "type": "bool"
        }
      ],
      "stateMutability": "view",
      "type": "function"
    },
    {
      "inputs": [
        {
          "internalType": "uint256",
          "name": "amount",
          "type": "uint256"
        }
      ],
      "name": "mint",
      "outputs": [],
      "stateMutability": "payable",
      "type": "function"
    },
    {
      "inputs": [],
      "name": "name",
      "outputs": [
        {
          "internalType": "string",
          "name": "",
          "type": "string"
        }
      ],
      "stateMutability": "view",
      "type": "function"
    },
    {
      "inputs": [],
      "name": "owner",
      "outputs": [
        {
          "internalType": "address",
          "name": "",
          "type": "address"
        }
      ],
      "stateMutability": "view",
      "type": "function"
    },
    {
      "inputs": [
        {
          "internalType": "uint256",
          "name": "tokenId",
          "type": "uint256"
        }
      ],
      "name": "ownerOf",
      "outputs": [
        {
          "internalType": "address",
          "name": "",
          "type": "address"
        }
      ],
      "stateMutability": "view",
      "type": "function"
    },
    {
      "inputs": [],
      "name": "renounceOwnership",
      "outputs": [],
      "stateMutability": "nonpayable",
      "type": "function"
    },
    {
      "inputs": [
        {
          "internalType": "address",
          "name": "from",
          "type": "address"
        },
        {
          "internalType": "address",
          "name": "to",
          "type": "address"
        },
        {
          "internalType": "uint256",
          "name": "tokenId",
          "type": "uint256"
        }
      ],
      "name": "safeTransferFrom",
      "outputs": [],
      "stateMutability": "nonpayable",
      "type": "function"
    },
    {
      "inputs": [
        {
          "internalType": "address",
          "name": "from",
          "type": "address"
        },
        {
          "internalType": "address",
          "name": "to",
          "type": "address"
        },
        {
          "internalType": "uint256",
          "name": "tokenId",
          "type": "uint256"
        },
        {
          "internalType": "bytes",
          "name": "_data",
          "type": "bytes"
        }
      ],
      "name": "safeTransferFrom",
      "outputs": [],
      "stateMutability": "nonpayable",
      "type": "function"
    },
    {
      "inputs": [
        {
          "internalType": "address",
          "name": "operator",
          "type": "address"
        },
        {
          "internalType": "bool",
          "name": "approved",
          "type": "bool"
        }
      ],
      "name": "setApprovalForAll",
      "outputs": [],
      "stateMutability": "nonpayable",
      "type": "function"
    },
    {
      "inputs": [
        {
          "internalType": "string",
          "name": "uri",
          "type": "string"
        }
      ],
      "name": "setBaseURI",
      "outputs": [],
      "stateMutability": "nonpayable",
      "type": "function"
    },
    {
      "inputs": [
        {
          "internalType": "bytes4",
          "name": "interfaceId",
          "type": "bytes4"
        }
      ],
      "name": "supportsInterface",
      "outputs": [
        {
          "internalType": "bool",
          "name": "",
          "type": "bool"
        }
      ],
      "stateMutability": "view",
      "type": "function"
    },
    {
      "inputs": [],
      "name": "symbol",
      "outputs": [
        {
          "internalType": "string",
          "name": "",
          "type": "string"
        }
      ],
      "stateMutability": "view",
      "type": "function"
    },
    {
      "inputs": [
        {
          "internalType": "uint256",
          "name": "tokenId",
          "type": "uint256"
        }
      ],
      "name": "tokenURI",
      "outputs": [
        {
          "internalType": "string",
          "name": "",
          "type": "string"
        }
      ],
      "stateMutability": "view",
      "type": "function"
    },
    {
      "inputs": [
        {
          "internalType": "address",
          "name": "from",
          "type": "address"
        },
        {
          "internalType": "address",
          "name": "to",
          "type": "address"
        },
        {
          "internalType": "uint256",
          "name": "tokenId",
          "type": "uint256"
        }
      ],
      "name": "transferFrom",
      "outputs": [],
      "stateMutability": "nonpayable",
      "type": "function"
    },
    {
      "inputs": [
        {
          "internalType": "address",
          "name": "newOwner",
          "type": "address"
        }
      ],
      "name": "transferOwnership",
      "outputs": [],
      "stateMutability": "nonpayable",
      "type": "function"
    }
  ],
  "transactionHash": "0xbb16414b6520a1cc961fb7bd86cef1e1623f9e88bb0f121e04fd8b4859093adc",
  "args": [
    "https://gateway.pinata.cloud/ipfs/QmeHbqX2rgkDPo92n7dw5tTcrebwpuj2MY8FphWo6L94YN"
  ],
  "numDeployments": 1,
  "solcInputHash": "22f8ee0467718fa057e74951a1c2e3b0",
  "bytecode": "0x6618838370f340006008556109c4600955600a805561012060405260016080908152600260a052607b60c0526101c860e05260ea610100526200004790600b906005620001d9565b506040805160c081018252600060a082018181528252825160208181018552828252808401919091528351808201855282815283850152835180820185528281526060840152835190810190935282526080810191909152620000af90600c9060056200022f565b50348015620000bd57600080fd5b506040516200234d3803806200234d833981016040819052620000e0916200039c565b6040518060400160405280600b81526020016a13db99519c9959535a5b9d60aa1b815250604051806040016040528060038152602001624f464d60e81b8152506200013a620001346200018560201b60201c565b62000189565b81516200014f9060019060208501906200028f565b508051620001659060029060208401906200028f565b505081516200017d9150600d9060208401906200028f565b5050620004b5565b3390565b600080546001600160a01b038381166001600160a01b0319831681178455604051919092169283917f8be0079c531659141344cd1fd0a4f28419497f9722a3daafe3b4186f6b6457e09190a35050565b8280548282559060005260206000209081019282156200021d579160200282015b828111156200021d578251829061ffff16905591602001919060010190620001fa565b506200022b9291506200030c565b5090565b82805482825590600052602060002090810192821562000281579160200282015b82811115620002815782518051620002709184916020909101906200028f565b509160200191906001019062000250565b506200022b92915062000323565b8280546200029d9062000478565b90600052602060002090601f016020900481019282620002c157600085556200021d565b82601f10620002dc57805160ff19168380011785556200021d565b828001600101855582156200021d579182015b828111156200021d578251825591602001919060010190620002ef565b5b808211156200022b57600081556001016200030d565b808211156200022b5760006200033a828262000344565b5060010162000323565b508054620003529062000478565b6000825580601f1062000363575050565b601f0160209004906000526020600020908101906200038391906200030c565b50565b634e487b7160e01b600052604160045260246000fd5b60006020808385031215620003b057600080fd5b82516001600160401b0380821115620003c857600080fd5b818501915085601f830112620003dd57600080fd5b815181811115620003f257620003f262000386565b604051601f8201601f19908116603f011681019083821181831017156200041d576200041d62000386565b8160405282815288868487010111156200043657600080fd5b600093505b828410156200045a57848401860151818501870152928501926200043b565b828411156200046c5760008684830101525b98975050505050505050565b600181811c908216806200048d57607f821691505b60208210811415620004af57634e487b7160e01b600052602260045260246000fd5b50919050565b611e8880620004c56000396000f3fe6080604052600436106101355760003560e01c80638da5cb5b116100ab578063bed34bba1161006f578063bed34bba14610354578063c87b56dd14610374578063e757223014610394578063e985e9c5146103b4578063eeac9a04146103fd578063f2fde38b1461041f57600080fd5b80638da5cb5b146102ce57806395d89b41146102ec578063a0712d6814610301578063a22cb46514610314578063b88d4fde1461033457600080fd5b806323b872dd116100fd57806323b872dd1461020b57806342842e0e1461022b57806355f804b31461024b5780636352211e1461026b57806370a082311461028b578063715018a6146102b957600080fd5b806301ffc9a71461013a57806306fdde031461016f578063081812fc14610191578063095ea7b3146101c95780631cb9fd63146101eb575b600080fd5b34801561014657600080fd5b5061015a610155366004611719565b61043f565b60405190151581526020015b60405180910390f35b34801561017b57600080fd5b50610184610491565b6040516101669190611795565b34801561019d57600080fd5b506101b16101ac3660046117a8565b610523565b6040516001600160a01b039091168152602001610166565b3480156101d557600080fd5b506101e96101e43660046117dd565b6105bd565b005b3480156101f757600080fd5b506101e96102063660046118b3565b6106d3565b34801561021757600080fd5b506101e96102263660046118fa565b610797565b34801561023757600080fd5b506101e96102463660046118fa565b6107c8565b34801561025757600080fd5b506101e9610266366004611936565b6107e3565b34801561027757600080fd5b506101b16102863660046117a8565b610824565b34801561029757600080fd5b506102ab6102a636600461196b565b61089b565b604051908152602001610166565b3480156102c557600080fd5b506101e9610922565b3480156102da57600080fd5b506000546001600160a01b03166101b1565b3480156102f857600080fd5b50610184610958565b6101e961030f3660046117a8565b610967565b34801561032057600080fd5b506101e961032f366004611986565b6109f5565b34801561034057600080fd5b506101e961034f3660046119c2565b610a00565b34801561036057600080fd5b5061015a61036f366004611a3e565b610a38565b34801561038057600080fd5b5061018461038f3660046117a8565b610a91565b3480156103a057600080fd5b506102ab6103af3660046117a8565b610d25565b3480156103c057600080fd5b5061015a6103cf366004611a98565b6001600160a01b03918216600090815260066020908152604080832093909416825291909152205460ff1690565b34801561040957600080fd5b50610412610dd8565b6040516101669190611acb565b34801561042b57600080fd5b506101e961043a36600461196b565b610e2f565b60006001600160e01b031982166380ac58cd60e01b148061047057506001600160e01b03198216635b5e139f60e01b145b8061048b57506301ffc9a760e01b6001600160e01b03198316145b92915050565b6060600180546104a090611b0f565b80601f01602080910402602001604051908101604052809291908181526020018280546104cc90611b0f565b80156105195780601f106104ee57610100808354040283529160200191610519565b820191906000526020600020905b8154815290600101906020018083116104fc57829003601f168201915b5050505050905090565b6000818152600360205260408120546001600160a01b03166105a15760405162461bcd60e51b815260206004820152602c60248201527f4552433732313a20617070726f76656420717565727920666f72206e6f6e657860448201526b34b9ba32b73a103a37b5b2b760a11b60648201526084015b60405180910390fd5b506000908152600560205260409020546001600160a01b031690565b60006105c882610824565b9050806001600160a01b0316836001600160a01b031614156106365760405162461bcd60e51b815260206004820152602160248201527f4552433732313a20617070726f76616c20746f2063757272656e74206f776e656044820152603960f91b6064820152608401610598565b336001600160a01b0382161480610652575061065281336103cf565b6106c45760405162461bcd60e51b815260206004820152603860248201527f4552433732313a20617070726f76652063616c6c6572206973206e6f74206f7760448201527f6e6572206e6f7220617070726f76656420666f7220616c6c00000000000000006064820152608401610598565b6106ce8383610eca565b505050565b6000546001600160a01b031633146106fd5760405162461bcd60e51b815260040161059890611b4a565b600582106107665760405162461bcd60e51b815260206004820152603060248201527f4552433732314d657461646174613a20696e646578206973206f76657265642c60448201526f08125d09dcc81a9d5cdd080c080b480d60821b6064820152608401610598565b80600c838154811061077a5761077a611b7f565b9060005260206000200190805190602001906106ce92919061166a565b6107a13382610f38565b6107bd5760405162461bcd60e51b815260040161059890611b95565b6106ce83838361102f565b6106ce83838360405180602001604052806000815250610a00565b6000546001600160a01b0316331461080d5760405162461bcd60e51b815260040161059890611b4a565b805161082090600d90602084019061166a565b5050565b6000818152600360205260408120546001600160a01b03168061048b5760405162461bcd60e51b815260206004820152602960248201527f4552433732313a206f776e657220717565727920666f72206e6f6e657869737460448201526832b73a103a37b5b2b760b91b6064820152608401610598565b60006001600160a01b0382166109065760405162461bcd60e51b815260206004820152602a60248201527f4552433732313a2062616c616e636520717565727920666f7220746865207a65604482015269726f206164647265737360b01b6064820152608401610598565b506001600160a01b031660009081526004602052604090205490565b6000546001600160a01b0316331461094c5760405162461bcd60e51b815260040161059890611b4a565b61095660006111cb565b565b6060600280546104a090611b0f565b3461097182610d25565b11156109b65760405162461bcd60e51b81526020600482015260146024820152734f464d3a6e6f7420656e6f756768206d6f6e657960601b6044820152606401610598565b60075460005b828110156109ee576109ce338361121b565b816109d881611bfc565b92505080806109e690611bfc565b9150506109bc565b5060075550565b61082033838361135d565b610a0a3383610f38565b610a265760405162461bcd60e51b815260040161059890611b95565b610a328484848461142c565b50505050565b600081604051602001610a4b9190611c33565b6040516020818303038152906040528051906020012083604051602001610a729190611c33565b6040516020818303038152906040528051906020012014905092915050565b6000818152600360205260409020546060906001600160a01b0316610b105760405162461bcd60e51b815260206004820152602f60248201527f4552433732314d657461646174613a2055524920717565727920666f72206e6f60448201526e3732bc34b9ba32b73a103a37b5b2b760891b6064820152608401610598565b60005b6005811015610cc85782600b8281548110610b3057610b30611b7f565b90600052602060002001541415610cb657610bff600c8281548110610b5757610b57611b7f565b906000526020600020018054610b6c90611b0f565b80601f0160208091040260200160405190810160405280929190818152602001828054610b9890611b0f565b8015610be55780601f10610bba57610100808354040283529160200191610be5565b820191906000526020600020905b815481529060010190602001808311610bc857829003601f168201915b505050505060405180602001604052806000815250610a38565b610cb157600c8181548110610c1657610c16611b7f565b906000526020600020018054610c2b90611b0f565b80601f0160208091040260200160405190810160405280929190818152602001828054610c5790611b0f565b8015610ca45780601f10610c7957610100808354040283529160200191610ca4565b820191906000526020600020905b815481529060010190602001808311610c8757829003601f168201915b5050505050915050919050565b610cc8565b80610cc081611bfc565b915050610b13565b506000600d8054610cd890611b0f565b905011610cf4576040518060200160405280600081525061048b565b600d610cff8361145f565b604051602001610d10929190611c4f565b60405160208183030381529060405292915050565b6000600a5482610d343361089b565b610d3e9190611d1a565b10610d955760405162461bcd60e51b815260206004820152602160248201527f4f464d3a796f7520616c7265616479206f7665726564206d696e74206c696d696044820152601d60fa1b6064820152608401610598565b610d9e3361089b565b158015610dae5750600954600754105b15610dcb57600854610dc1600184611d32565b61048b9190611d49565b60085461048b9083611d49565b6060600b80548060200260200160405190810160405280929190818152602001828054801561051957602002820191906000526020600020905b815481526020019060010190808311610e12575050505050905090565b6000546001600160a01b03163314610e595760405162461bcd60e51b815260040161059890611b4a565b6001600160a01b038116610ebe5760405162461bcd60e51b815260206004820152602660248201527f4f776e61626c653a206e6577206f776e657220697320746865207a65726f206160448201526564647265737360d01b6064820152608401610598565b610ec7816111cb565b50565b600081815260056020526040902080546001600160a01b0319166001600160a01b0384169081179091558190610eff82610824565b6001600160a01b03167f8c5be1e5ebec7d5bd14f71427d1e84f3dd0314c0f7b2291e5b200ac8c7c3b92560405160405180910390a45050565b6000818152600360205260408120546001600160a01b0316610fb15760405162461bcd60e51b815260206004820152602c60248201527f4552433732313a206f70657261746f7220717565727920666f72206e6f6e657860448201526b34b9ba32b73a103a37b5b2b760a11b6064820152608401610598565b6000610fbc83610824565b9050806001600160a01b0316846001600160a01b0316148061100357506001600160a01b0380821660009081526006602090815260408083209388168352929052205460ff165b806110275750836001600160a01b031661101c84610523565b6001600160a01b0316145b949350505050565b826001600160a01b031661104282610824565b6001600160a01b0316146110a65760405162461bcd60e51b815260206004820152602560248201527f4552433732313a207472616e736665722066726f6d20696e636f72726563742060448201526437bbb732b960d91b6064820152608401610598565b6001600160a01b0382166111085760405162461bcd60e51b8152602060048201526024808201527f4552433732313a207472616e7366657220746f20746865207a65726f206164646044820152637265737360e01b6064820152608401610598565b611113600082610eca565b6001600160a01b038316600090815260046020526040812080546001929061113c908490611d32565b90915550506001600160a01b038216600090815260046020526040812080546001929061116a908490611d1a565b909155505060008181526003602052604080822080546001600160a01b0319166001600160a01b0386811691821790925591518493918716917fddf252ad1be2c89b69c2b068fc378daa952ba7f163c4a11628f55a4df523b3ef91a4505050565b600080546001600160a01b038381166001600160a01b0319831681178455604051919092169283917f8be0079c531659141344cd1fd0a4f28419497f9722a3daafe3b4186f6b6457e09190a35050565b6001600160a01b0382166112715760405162461bcd60e51b815260206004820181905260248201527f4552433732313a206d696e7420746f20746865207a65726f20616464726573736044820152606401610598565b6000818152600360205260409020546001600160a01b0316156112d65760405162461bcd60e51b815260206004820152601c60248201527f4552433732313a20746f6b656e20616c7265616479206d696e746564000000006044820152606401610598565b6001600160a01b03821660009081526004602052604081208054600192906112ff908490611d1a565b909155505060008181526003602052604080822080546001600160a01b0319166001600160a01b03861690811790915590518392907fddf252ad1be2c89b69c2b068fc378daa952ba7f163c4a11628f55a4df523b3ef908290a45050565b816001600160a01b0316836001600160a01b031614156113bf5760405162461bcd60e51b815260206004820152601960248201527f4552433732313a20617070726f766520746f2063616c6c6572000000000000006044820152606401610598565b6001600160a01b03838116600081815260066020908152604080832094871680845294825291829020805460ff191686151590811790915591519182527f17307eab39ab6107e8899845ad3d59bd9653f200f220920489ca2b5937696c31910160405180910390a3505050565b61143784848461102f565b6114438484848461155d565b610a325760405162461bcd60e51b815260040161059890611d68565b6060816114835750506040805180820190915260018152600360fc1b602082015290565b8160005b81156114ad578061149781611bfc565b91506114a69050600a83611dd0565b9150611487565b60008167ffffffffffffffff8111156114c8576114c8611807565b6040519080825280601f01601f1916602001820160405280156114f2576020820181803683370190505b5090505b841561102757611507600183611d32565b9150611514600a86611de4565b61151f906030611d1a565b60f81b81838151811061153457611534611b7f565b60200101906001600160f81b031916908160001a905350611556600a86611dd0565b94506114f6565b60006001600160a01b0384163b1561165f57604051630a85bd0160e11b81526001600160a01b0385169063150b7a02906115a1903390899088908890600401611df8565b602060405180830381600087803b1580156115bb57600080fd5b505af19250505080156115eb575060408051601f3d908101601f191682019092526115e891810190611e35565b60015b611645573d808015611619576040519150601f19603f3d011682016040523d82523d6000602084013e61161e565b606091505b50805161163d5760405162461bcd60e51b815260040161059890611d68565b805181602001fd5b6001600160e01b031916630a85bd0160e11b149050611027565b506001949350505050565b82805461167690611b0f565b90600052602060002090601f01602090048101928261169857600085556116de565b82601f106116b157805160ff19168380011785556116de565b828001600101855582156116de579182015b828111156116de5782518255916020019190600101906116c3565b506116ea9291506116ee565b5090565b5b808211156116ea57600081556001016116ef565b6001600160e01b031981168114610ec757600080fd5b60006020828403121561172b57600080fd5b813561173681611703565b9392505050565b60005b83811015611758578181015183820152602001611740565b83811115610a325750506000910152565b6000815180845261178181602086016020860161173d565b601f01601f19169290920160200192915050565b6020815260006117366020830184611769565b6000602082840312156117ba57600080fd5b5035919050565b80356001600160a01b03811681146117d857600080fd5b919050565b600080604083850312156117f057600080fd5b6117f9836117c1565b946020939093013593505050565b634e487b7160e01b600052604160045260246000fd5b600067ffffffffffffffff8084111561183857611838611807565b604051601f8501601f19908116603f0116810190828211818310171561186057611860611807565b8160405280935085815286868601111561187957600080fd5b858560208301376000602087830101525050509392505050565b600082601f8301126118a457600080fd5b6117368383356020850161181d565b600080604083850312156118c657600080fd5b82359150602083013567ffffffffffffffff8111156118e457600080fd5b6118f085828601611893565b9150509250929050565b60008060006060848603121561190f57600080fd5b611918846117c1565b9250611926602085016117c1565b9150604084013590509250925092565b60006020828403121561194857600080fd5b813567ffffffffffffffff81111561195f57600080fd5b61102784828501611893565b60006020828403121561197d57600080fd5b611736826117c1565b6000806040838503121561199957600080fd5b6119a2836117c1565b9150602083013580151581146119b757600080fd5b809150509250929050565b600080600080608085870312156119d857600080fd5b6119e1856117c1565b93506119ef602086016117c1565b925060408501359150606085013567ffffffffffffffff811115611a1257600080fd5b8501601f81018713611a2357600080fd5b611a328782356020840161181d565b91505092959194509250565b60008060408385031215611a5157600080fd5b823567ffffffffffffffff80821115611a6957600080fd5b611a7586838701611893565b93506020850135915080821115611a8b57600080fd5b506118f085828601611893565b60008060408385031215611aab57600080fd5b611ab4836117c1565b9150611ac2602084016117c1565b90509250929050565b6020808252825182820181905260009190848201906040850190845b81811015611b0357835183529284019291840191600101611ae7565b50909695505050505050565b600181811c90821680611b2357607f821691505b60208210811415611b4457634e487b7160e01b600052602260045260246000fd5b50919050565b6020808252818101527f4f776e61626c653a2063616c6c6572206973206e6f7420746865206f776e6572604082015260600190565b634e487b7160e01b600052603260045260246000fd5b60208082526031908201527f4552433732313a207472616e736665722063616c6c6572206973206e6f74206f6040820152701ddb995c881b9bdc88185c1c1c9bdd9959607a1b606082015260800190565b634e487b7160e01b600052601160045260246000fd5b6000600019821415611c1057611c10611be6565b5060010190565b60008151611c2981856020860161173d565b9290920192915050565b60008251611c4581846020870161173d565b9190910192915050565b600080845481600182811c915080831680611c6b57607f831692505b6020808410821415611c8b57634e487b7160e01b86526022600452602486fd5b818015611c9f5760018114611cb057611cdd565b60ff19861689528489019650611cdd565b60008b81526020902060005b86811015611cd55781548b820152908501908301611cbc565b505084890196505b505050505050611d11611d00611cfa83602f60f81b815260010190565b86611c17565b64173539b7b760d91b815260050190565b95945050505050565b60008219821115611d2d57611d2d611be6565b500190565b600082821015611d4457611d44611be6565b500390565b6000816000190483118215151615611d6357611d63611be6565b500290565b60208082526032908201527f4552433732313a207472616e7366657220746f206e6f6e20455243373231526560408201527131b2b4bb32b91034b6b83632b6b2b73a32b960711b606082015260800190565b634e487b7160e01b600052601260045260246000fd5b600082611ddf57611ddf611dba565b500490565b600082611df357611df3611dba565b500690565b6001600160a01b0385811682528416602082015260408101839052608060608201819052600090611e2b90830184611769565b9695505050505050565b600060208284031215611e4757600080fd5b81516117368161170356fea2646970667358221220f962823ffc221a1f22427b2ee3b309b191c48bba52bf1a2223464bbf96299f2664736f6c63430008090033",
  "devdoc": {
    "kind": "dev",
    "methods": {
      "approve(address,uint256)": {
        "details": "See {IERC721-approve}."
      },
      "balanceOf(address)": {
        "details": "See {IERC721-balanceOf}."
      },
      "getApproved(uint256)": {
        "details": "See {IERC721-getApproved}."
      },
      "isApprovedForAll(address,address)": {
        "details": "See {IERC721-isApprovedForAll}."
      },
      "name()": {
        "details": "See {IERC721Metadata-name}."
      },
      "owner()": {
        "details": "Returns the address of the current owner."
      },
      "ownerOf(uint256)": {
        "details": "See {IERC721-ownerOf}."
      },
      "renounceOwnership()": {
        "details": "Leaves the contract without owner. It will not be possible to call `onlyOwner` functions anymore. Can only be called by the current owner. NOTE: Renouncing ownership will leave the contract without an owner, thereby removing any functionality that is only available to the owner."
      },
      "safeTransferFrom(address,address,uint256)": {
        "details": "See {IERC721-safeTransferFrom}."
      },
      "safeTransferFrom(address,address,uint256,bytes)": {
        "details": "See {IERC721-safeTransferFrom}."
      },
      "setApprovalForAll(address,bool)": {
        "details": "See {IERC721-setApprovalForAll}."
      },
      "supportsInterface(bytes4)": {
        "details": "See {IERC165-supportsInterface}."
      },
      "symbol()": {
        "details": "See {IERC721Metadata-symbol}."
      },
      "tokenURI(uint256)": {
        "details": "See {IERC721Metadata-tokenURI}."
      },
      "transferFrom(address,address,uint256)": {
        "details": "See {IERC721-transferFrom}."
      },
      "transferOwnership(address)": {
        "details": "Transfers ownership of the contract to a new account (`newOwner`). Can only be called by the current owner."
      }
    },
    "version": 1
  },
  "userdoc": {
    "kind": "user",
    "methods": {},
    "version": 1
  },
  "storageLayout": {
    "storage": [
      {
        "astId": 7,
        "contract": "contracts/OneFreeNFT.sol:OneFreeMint",
        "label": "_owner",
        "offset": 0,
        "slot": "0",
        "type": "t_address"
      },
      {
        "astId": 130,
        "contract": "contracts/OneFreeNFT.sol:OneFreeMint",
        "label": "_name",
        "offset": 0,
        "slot": "1",
        "type": "t_string_storage"
      },
      {
        "astId": 132,
        "contract": "contracts/OneFreeNFT.sol:OneFreeMint",
        "label": "_symbol",
        "offset": 0,
        "slot": "2",
        "type": "t_string_storage"
      },
      {
        "astId": 136,
        "contract": "contracts/OneFreeNFT.sol:OneFreeMint",
        "label": "_owners",
        "offset": 0,
        "slot": "3",
        "type": "t_mapping(t_uint256,t_address)"
      },
      {
        "astId": 140,
        "contract": "contracts/OneFreeNFT.sol:OneFreeMint",
        "label": "_balances",
        "offset": 0,
        "slot": "4",
        "type": "t_mapping(t_address,t_uint256)"
      },
      {
        "astId": 144,
        "contract": "contracts/OneFreeNFT.sol:OneFreeMint",
        "label": "_tokenApprovals",
        "offset": 0,
        "slot": "5",
        "type": "t_mapping(t_uint256,t_address)"
      },
      {
        "astId": 150,
        "contract": "contracts/OneFreeNFT.sol:OneFreeMint",
        "label": "_operatorApprovals",
        "offset": 0,
        "slot": "6",
        "type": "t_mapping(t_address,t_mapping(t_address,t_bool))"
      },
      {
        "astId": 1701,
        "contract": "contracts/OneFreeNFT.sol:OneFreeMint",
        "label": "_tokenIdCounter",
        "offset": 0,
        "slot": "7",
        "type": "t_uint256"
      },
      {
        "astId": 1708,
        "contract": "contracts/OneFreeNFT.sol:OneFreeMint",
        "label": "mintPrice",
        "offset": 0,
        "slot": "8",
        "type": "t_uint256"
      },
      {
        "astId": 1711,
        "contract": "contracts/OneFreeNFT.sol:OneFreeMint",
        "label": "freeMintLimit",
        "offset": 0,
        "slot": "9",
        "type": "t_uint256"
      },
      {
        "astId": 1714,
        "contract": "contracts/OneFreeNFT.sol:OneFreeMint",
        "label": "walletMintLimit",
        "offset": 0,
        "slot": "10",
        "type": "t_uint256"
      },
      {
        "astId": 1723,
        "contract": "contracts/OneFreeNFT.sol:OneFreeMint",
        "label": "changableIds",
        "offset": 0,
        "slot": "11",
        "type": "t_array(t_uint256)dyn_storage"
      },
      {
        "astId": 1732,
        "contract": "contracts/OneFreeNFT.sol:OneFreeMint",
        "label": "changableURI",
        "offset": 0,
        "slot": "12",
        "type": "t_array(t_string_storage)dyn_storage"
      },
      {
        "astId": 1734,
        "contract": "contracts/OneFreeNFT.sol:OneFreeMint",
        "label": "_tokenBaseURI",
        "offset": 0,
        "slot": "13",
        "type": "t_string_storage"
      }
    ],
    "types": {
      "t_address": {
        "encoding": "inplace",
        "label": "address",
        "numberOfBytes": "20"
      },
      "t_array(t_string_storage)dyn_storage": {
        "base": "t_string_storage",
        "encoding": "dynamic_array",
        "label": "string[]",
        "numberOfBytes": "32"
      },
      "t_array(t_uint256)dyn_storage": {
        "base": "t_uint256",
        "encoding": "dynamic_array",
        "label": "uint256[]",
        "numberOfBytes": "32"
      },
      "t_bool": {
        "encoding": "inplace",
        "label": "bool",
        "numberOfBytes": "1"
      },
      "t_mapping(t_address,t_bool)": {
        "encoding": "mapping",
        "key": "t_address",
        "label": "mapping(address => bool)",
        "numberOfBytes": "32",
        "value": "t_bool"
      },
      "t_mapping(t_address,t_mapping(t_address,t_bool))": {
        "encoding": "mapping",
        "key": "t_address",
        "label": "mapping(address => mapping(address => bool))",
        "numberOfBytes": "32",
        "value": "t_mapping(t_address,t_bool)"
      },
      "t_mapping(t_address,t_uint256)": {
        "encoding": "mapping",
        "key": "t_address",
        "label": "mapping(address => uint256)",
        "numberOfBytes": "32",
        "value": "t_uint256"
      },
      "t_mapping(t_uint256,t_address)": {
        "encoding": "mapping",
        "key": "t_uint256",
        "label": "mapping(uint256 => address)",
        "numberOfBytes": "32",
        "value": "t_address"
      },
      "t_string_storage": {
        "encoding": "bytes",
        "label": "string",
        "numberOfBytes": "32"
      },
      "t_uint256": {
        "encoding": "inplace",
        "label": "uint256",
        "numberOfBytes": "32"
      }
    }
  }
}